:1000000045C0000058C0000056C0000054C00000A9
:1000100052C0000050C000004EC000004CC00000A4
:100020004AC0000048C0000046C0000044C00000B4
:1000300042C0000040C000003EC000003CC00000C4
:100040003AC0000038C0000036C0000034C00000D4
:1000500032C0000030C000002EC000002CC00000E4
:100060002AC0000028C0000026C0000024C00000F4
:1000700022C0000020C000001EC000001CC0000004
:100080001AC0000018C0000016C0000011241FBED6
:10009000CFEFD0E1DEBFCDBF11E0A0E0B1E0E6E6FA
:1000A000F1E000E00BBF02C007900D92AA30B1074B
:1000B000D9F702D056C0A4CFCF93DF93CDB7DEB728
:1000C0002A970FB6F894DEBF0FBECDBF8FEF8ABB65
:1000D0009AE0E0E0F1E0DE01119601900D929A9530
:1000E000E1F78ABB80E090E0E1E0F0E0EC0FFD1F7B
:1000F000E80FF91F20812BBB01966AE070E00AD05F
:100100002FEF33EC49E0215030404040E1F700C090
:100110000000EACF97FB072E16F4009406D077FD77
:1001200008D00BD007FC05D03EF4909581959F4FE9
:100130000895709561957F4F0895AA1BBB1B51E1EF
:1001400007C0AA1FBB1FA617B70710F0A61BB70B47
:10015000881F991F5A95A9F780959095BC01CD01EC
:060160000895F894FFCFA2
:0A0166003F065B4F666D7D277F6743
:00000001FF
