:1000000045C0000004C100003AC100005CC000000F
:100010005AC0000058C0000056C0000054C0000084
:1000200052C0000050C000004EC000004CC0000094
:100030004AC0000048C0000046C0000044C00000A4
:1000400042C0000040C000003EC000003CC00000B4
:100050003AC0000038C0000036C0000034C00000C4
:1000600032C0000030C000002EC000002CC00000D4
:100070002AC0000028C0000026C0000024C00000E4
:1000800022C0000020C000001EC0000011241FBEBE
:10009000CFEFD0E1DEBFCDBF11E0A0E0B1E0E4E5FD
:1000A000F3E000E00BBF02C007900D92A431B1074E
:1000B000D9F721E0A4E1B1E001C01D92A531B2075A
:1000C000E1F737D145C19CCF1092710087E480934E
:1000D000700084E080937400089584EA8093740033
:1000E000809174008823E4F7089584E98093740074
:1000F00085E38A95F1F7000008958093730084E802
:1001000080937400809174008823E4F70895CF935E
:10011000807FC82FC62BE1DF8EE4EFDF8C2F8C6051
:10012000ECDF85E08A95F1F700008C2F8B7F8860EB
:10013000E4DF87EC90E00197F1F700C00000D5DF25
:10014000CF910895CF93C82F60E0807FE0DF60E01B
:100150008C2F8295807FDBDFCF910895CF93C82FBE
:1001600061E0807FD4DF61E08C2F8295807FCFDFDC
:10017000CF9108952FEF80E792E02150804090408A
:10018000E1F700C0000080E3DDDF8FE19EE401972E
:10019000F1F700C0000080E3D5DF87E592E001972A
:1001A000F1F700C0000080E2CDDF8FE19EE401970F
:1001B000F1F700C0000088E2C5DF8CE0C3DF81E01A
:1001C000C1DF8FE39FE10197F1F700C000000895C0
:1001D00081E0B8DF8FE39FE10197F1F700C00000F5
:1001E0000895CF93DF93EC0102C02196B7DF888199
:1001F0008111FBCFDF91CF910895EAE6F0E0808195
:100200008F60808389B7836089BF789408951F9237
:100210000F920FB60F9211240BB60F922F933F93AC
:100220004F935F936F937F938F939F93AF93BF93FE
:10023000EF93FF9380911401813041F081E080932E
:100240001401C6DF80E091E0CCDF06C010921401FB
:10025000BFDF82E091E0C5DFFF91EF91BF91AF91E9
:100260009F918F917F916F915F914F913F912F91CE
:100270000F900BBE0F900FBE0F901F9018951F92FE
:100280000F920FB60F9211240BB60F922F933F933C
:100290004F935F936F937F938F939F93AF93BF938E
:1002A000EF93FF9380911401823041F082E08093BC
:1002B00014018EDF80E191E094DF06C010921401FA
:1002C00087DF82E091E08DDFFF91EF91BF91AF91E9
:1002D0009F918F917F916F915F914F913F912F915E
:1002E0000F900BBE0F900FBE0F901F901895849922
:1002F0001FC02FEF80E792E0215080409040E1F74F
:1003000000C00000849914C080911401833041F032
:1003100083E0809314015CDF82E191E062DF06C03C
:100320001092140155DF82E091E05BDF849BFECFE9
:100330000895CADE1FDF61DF81B38F7E81BB82B388
:10034000806182BB45DF82E091E04BDFD0DFFECFF2
:04035000F894FFCF4F
:10035400410048656C6C6F2C20576F726C642100EF
:040364004200430010
:00000001FF
