:100000000C9446000C9450000C9450000C9450003A
:100010000C9450000C9450000C9450000C94500020
:100020000C9450000C9450000C9450000C94500010
:100030000C9450000C9450000C9450000C94500000
:100040000C9450000C9450000C9450000C945000F0
:100050000C9450000C9450000C9450000C945000E0
:100060000C9450000C9450000C9450000C945000D0
:100070000C9450000C9450000C9450000C945000C0
:100080000C9450000C9450000C94500011241FBE8E
:10009000CFEFD0E1DEBFCDBF0E94A2000C94F800EC
:1000A0000C940000B89A0895DC01ED91FC91119731
:1000B000208112963C9181E090E001C0880F3A9532
:1000C000EAF78095822380830895DC01ED91FC910D
:1000D0001197908112968C9121E030E001C0220F9F
:1000E0008A95EAF7892F822B80830895FC01A281EB
:1000F000B3819C918581448121E030E001C0220FD1
:100100004A95EAF7922369F48130D1F42FEF30E772
:1001100092E0215030409040E1F700C0000015828D
:10012000089581110DC02FEF30E782E0215030405B
:100130008040E1F700C0000081E0858382E00895FF
:1001400080E00895CF93DF93CDB7DEB765970FB604
:10015000F894DEBF0FBECDBF88E390E09C8B8B8B05
:100160001D8ACE0143960E94520041E350E05E8713
:100170004D8720E330E0388B2F87198A81E08A8B06
:10018000889858874F833A8729878B878C878998E7
:100190005A8349833C832B8392E09D838E838A9884
:1001A000BC9A83B78E6683BF0FEF18ECCE010D9615
:1001B0000E947600823029F4CE0143960E946500A9
:1001C00001BFCE0107960E947600823029F4CE014D
:1001D00043960E94540011BECE0101960E94760003
:1001E000823021F7CE0143960E94540011BFDECF2A
:0401F000F894FFCFB1
:00000001FF
